{
  "_format": "hh-sol-artifact-1",
  "contractName": "data_transaction",
  "sourceName": "contracts/data_transaction_smart_contract.sol",
  "abi": [
    {
      "inputs": [],
      "stateMutability": "nonpayable",
      "type": "constructor"
    },
    {
      "anonymous": false,
      "inputs": [
        {
          "indexed": false,
          "internalType": "address",
          "name": "",
          "type": "address"
        },
        {
          "indexed": false,
          "internalType": "uint256",
          "name": "",
          "type": "uint256"
        }
      ],
      "name": "excess_eth_returned",
      "type": "event"
    },
    {
      "inputs": [
        {
          "internalType": "string",
          "name": "data_hash",
          "type": "string"
        }
      ],
      "name": "activate_ML_service",
      "outputs": [],
      "stateMutability": "payable",
      "type": "function"
    },
    {
      "inputs": [
        {
          "internalType": "address",
          "name": "",
          "type": "address"
        }
      ],
      "name": "adminMemberMapping",
      "outputs": [
        {
          "internalType": "bool",
          "name": "",
          "type": "bool"
        }
      ],
      "stateMutability": "view",
      "type": "function"
    },
    {
      "inputs": [
        {
          "internalType": "uint256",
          "name": "data_id",
          "type": "uint256"
        }
      ],
      "name": "internal_view_data_hash",
      "outputs": [
        {
          "internalType": "string",
          "name": "",
          "type": "string"
        }
      ],
      "stateMutability": "view",
      "type": "function"
    },
    {
      "inputs": [
        {
          "internalType": "uint256",
          "name": "data_id",
          "type": "uint256"
        }
      ],
      "name": "purchaseData",
      "outputs": [],
      "stateMutability": "payable",
      "type": "function"
    },
    {
      "inputs": [
        {
          "internalType": "uint256",
          "name": "key_id",
          "type": "uint256"
        }
      ],
      "name": "purchase_ML_API",
      "outputs": [],
      "stateMutability": "payable",
      "type": "function"
    },
    {
      "inputs": [
        {
          "internalType": "uint256[]",
          "name": "ml_key_list",
          "type": "uint256[]"
        }
      ],
      "name": "retrieve_ml_product_info",
      "outputs": [
        {
          "internalType": "string[]",
          "name": "",
          "type": "string[]"
        },
        {
          "internalType": "uint256[]",
          "name": "",
          "type": "uint256[]"
        },
        {
          "internalType": "string[]",
          "name": "",
          "type": "string[]"
        }
      ],
      "stateMutability": "view",
      "type": "function"
    },
    {
      "inputs": [
        {
          "internalType": "uint256[]",
          "name": "data_id_list",
          "type": "uint256[]"
        }
      ],
      "name": "retrieve_raw_data_info",
      "outputs": [
        {
          "internalType": "string[]",
          "name": "",
          "type": "string[]"
        },
        {
          "internalType": "uint256[]",
          "name": "",
          "type": "uint256[]"
        },
        {
          "internalType": "string[]",
          "name": "",
          "type": "string[]"
        }
      ],
      "stateMutability": "view",
      "type": "function"
    },
    {
      "inputs": [
        {
          "internalType": "string",
          "name": "data_hash",
          "type": "string"
        },
        {
          "internalType": "string",
          "name": "dataset_name",
          "type": "string"
        },
        {
          "internalType": "uint256",
          "name": "price",
          "type": "uint256"
        },
        {
          "internalType": "bool",
          "name": "purchase_ML",
          "type": "bool"
        },
        {
          "internalType": "string",
          "name": "data_description",
          "type": "string"
        }
      ],
      "name": "uploadData",
      "outputs": [],
      "stateMutability": "payable",
      "type": "function"
    },
    {
      "inputs": [
        {
          "internalType": "address",
          "name": "seller",
          "type": "address"
        },
        {
          "internalType": "string",
          "name": "ml_product_name",
          "type": "string"
        },
        {
          "internalType": "string",
          "name": "api_key",
          "type": "string"
        },
        {
          "internalType": "uint256",
          "name": "price",
          "type": "uint256"
        },
        {
          "internalType": "string",
          "name": "description",
          "type": "string"
        }
      ],
      "name": "upload_ML_API_key",
      "outputs": [],
      "stateMutability": "nonpayable",
      "type": "function"
    },
    {
      "inputs": [
        {
          "internalType": "string",
          "name": "data_hash",
          "type": "string"
        }
      ],
      "name": "view_ML_status",
      "outputs": [
        {
          "internalType": "bool",
          "name": "",
          "type": "bool"
        }
      ],
      "stateMutability": "view",
      "type": "function"
    },
    {
      "inputs": [],
      "name": "view_ml_key_id_list",
      "outputs": [
        {
          "internalType": "uint256[]",
          "name": "",
          "type": "uint256[]"
        }
      ],
      "stateMutability": "view",
      "type": "function"
    },
    {
      "inputs": [
        {
          "internalType": "uint256",
          "name": "key_id",
          "type": "uint256"
        }
      ],
      "name": "view_purchased_ml_api_key",
      "outputs": [
        {
          "internalType": "string",
          "name": "",
          "type": "string"
        }
      ],
      "stateMutability": "view",
      "type": "function"
    },
    {
      "inputs": [
        {
          "internalType": "uint256",
          "name": "data_id",
          "type": "uint256"
        }
      ],
      "name": "view_purchased_raw_data",
      "outputs": [
        {
          "internalType": "string",
          "name": "",
          "type": "string"
        }
      ],
      "stateMutability": "view",
      "type": "function"
    },
    {
      "inputs": [],
      "name": "view_raw_data_id_list",
      "outputs": [
        {
          "internalType": "uint256[]",
          "name": "",
          "type": "uint256[]"
        }
      ],
      "stateMutability": "view",
      "type": "function"
    },
    {
      "stateMutability": "payable",
      "type": "receive"
    }
  ],
  "bytecode": "0x6080604052600160075573cd9edcee608e3d7d8cb3a82fe7ac5aad7cf54e59600860006101000a81548173ffffffffffffffffffffffffffffffffffffffff021916908373ffffffffffffffffffffffffffffffffffffffff16021790555034801561006a57600080fd5b5060016009600073cd9edcee608e3d7d8cb3a82fe7ac5aad7cf54e5973ffffffffffffffffffffffffffffffffffffffff1673ffffffffffffffffffffffffffffffffffffffff16815260200190815260200160002060006101000a81548160ff02191690831515021790555060016009600073c834e96dd8788ce1702c589dd56ca7415a04117773ffffffffffffffffffffffffffffffffffffffff1673ffffffffffffffffffffffffffffffffffffffff16815260200190815260200160002060006101000a81548160ff02191690831515021790555060016009600073470bcf448e819306fa7ad1aa5ed5ed669b933c2b73ffffffffffffffffffffffffffffffffffffffff1673ffffffffffffffffffffffffffffffffffffffff16815260200190815260200160002060006101000a81548160ff021916908315150217905550612a94806101be6000396000f3fe6080604052600436106100e15760003560e01c8063cc0e37cd1161007f578063dd8423a911610059578063dd8423a9146102bd578063e84df33d146102fa578063ea1f2c0e14610323578063f51c332214610360576100e8565b8063cc0e37cd14610225578063d1993e6a14610262578063d6b284a3146102a1576100e8565b8063440034ab116100bb578063440034ab14610171578063650f7b541461018d57806384c4f594146101cc5780639a020acb146101e8576100e8565b80630d182322146100ed5780632410ae081461012a5780634325233d14610146576100e8565b366100e857005b600080fd5b3480156100f957600080fd5b50610114600480360381019061010f9190611c89565b61038b565b6040516101219190611d46565b60405180910390f35b610144600480360381019061013f9190611c89565b61050f565b005b34801561015257600080fd5b5061015b610737565b6040516101689190611e26565b60405180910390f35b61018b60048036038101906101869190611f7d565b61078f565b005b34801561019957600080fd5b506101b460048036038101906101af919061208e565b610920565b6040516101c3939291906121e3565b60405180910390f35b6101e660048036038101906101e19190611c89565b610c4a565b005b3480156101f457600080fd5b5061020f600480360381019061020a9190611c89565b610e6c565b60405161021c9190611d46565b60405180910390f35b34801561023157600080fd5b5061024c60048036038101906102479190611c89565b610f5f565b6040516102599190611d46565b60405180910390f35b34801561026e57600080fd5b506102896004803603810190610284919061208e565b6110e6565b604051610298939291906121e3565b60405180910390f35b6102bb60048036038101906102b69190612267565b61140d565b005b3480156102c957600080fd5b506102e460048036038101906102df9190611f7d565b611874565b6040516102f19190612345565b60405180910390f35b34801561030657600080fd5b50610321600480360381019061031c91906123be565b61192a565b005b34801561032f57600080fd5b5061034a6004803603810190610345919061248d565b611aca565b6040516103579190612345565b60405180910390f35b34801561036c57600080fd5b50610375611aea565b6040516103829190611e26565b60405180910390f35b606060005b600080848152602001908152602001600020600501805490508110156104ed5760008084815260200190815260200160002060050181815481106103d7576103d66124ba565b5b9060005260206000200160009054906101000a900473ffffffffffffffffffffffffffffffffffffffff1673ffffffffffffffffffffffffffffffffffffffff163373ffffffffffffffffffffffffffffffffffffffff16036104da57600080848152602001908152602001600020600001805461045490612518565b80601f016020809104026020016040519081016040528092919081815260200182805461048090612518565b80156104cd5780601f106104a2576101008083540402835291602001916104cd565b820191906000526020600020905b8154815290600101906020018083116104b057829003601f168201915b505050505091505061050a565b80806104e590612578565b915050610390565b50604051806060016040528060238152602001612a3c6023913990505b919050565b6001600082815260200190815260200160002060030154341015610568576040517f08c379a000000000000000000000000000000000000000000000000000000000815260040161055f9061260c565b60405180910390fd5b3373ffffffffffffffffffffffffffffffffffffffff166108fc6001600084815260200190815260200160002060030154346105a4919061262c565b9081150290604051600060405180830381858888f193505050501580156105cf573d6000803e3d6000fd5b507fb0555ee686761aafa443e3163371ca03ee23d933eb31c75f7796052fd39f319333600160008481526020019081526020016000206003015434610614919061262c565b60405161062292919061267e565b60405180910390a16001600082815260200190815260200160002060020160009054906101000a900473ffffffffffffffffffffffffffffffffffffffff1673ffffffffffffffffffffffffffffffffffffffff166108fc60016000848152602001908152602001600020600301549081150290604051600060405180830381858888f193505050501580156106bc573d6000803e3d6000fd5b5060016000828152602001908152602001600020600501339080600181540180825580915050600190039060005260206000200160009091909190916101000a81548173ffffffffffffffffffffffffffffffffffffffff021916908373ffffffffffffffffffffffffffffffffffffffff16021790555050565b6060600480548060200260200160405190810160405280929190818152602001828054801561078557602002820191906000526020600020905b815481526020019060010190808311610771575b5050505050905090565b3373ffffffffffffffffffffffffffffffffffffffff166002826040516107b691906126e3565b908152602001604051809103902060000160019054906101000a900473ffffffffffffffffffffffffffffffffffffffff1673ffffffffffffffffffffffffffffffffffffffff160361091d57600754341015610848576040517f08c379a000000000000000000000000000000000000000000000000000000000815260040161083f90612746565b60405180910390fd5b3373ffffffffffffffffffffffffffffffffffffffff166108fc60075434610870919061262c565b9081150290604051600060405180830381858888f1935050505015801561089b573d6000803e3d6000fd5b507fb0555ee686761aafa443e3163371ca03ee23d933eb31c75f7796052fd39f319333600754346108cc919061262c565b6040516108da92919061267e565b60405180910390a160016002826040516108f491906126e3565b908152602001604051809103902060000160006101000a81548160ff0219169083151502179055505b50565b60608060606000845167ffffffffffffffff81111561094257610941611e52565b5b60405190808252806020026020018201604052801561097557816020015b60608152602001906001900390816109605790505b5090506000855167ffffffffffffffff81111561099557610994611e52565b5b6040519080825280602002602001820160405280156109c35781602001602082028036833780820191505090505b5090506000865167ffffffffffffffff8111156109e3576109e2611e52565b5b604051908082528060200260200182016040528015610a1657816020015b6060815260200190600190039081610a015790505b50905060005b8751811015610c365760016000898381518110610a3c57610a3b6124ba565b5b602002602001015181526020019081526020016000206001018054610a6090612518565b80601f0160208091040260200160405190810160405280929190818152602001828054610a8c90612518565b8015610ad95780601f10610aae57610100808354040283529160200191610ad9565b820191906000526020600020905b815481529060010190602001808311610abc57829003601f168201915b5050505050848281518110610af157610af06124ba565b5b602002602001018190525060016000898381518110610b1357610b126124ba565b5b6020026020010151815260200190815260200160002060030154838281518110610b4057610b3f6124ba565b5b60200260200101818152505060016000898381518110610b6357610b626124ba565b5b602002602001015181526020019081526020016000206004018054610b8790612518565b80601f0160208091040260200160405190810160405280929190818152602001828054610bb390612518565b8015610c005780601f10610bd557610100808354040283529160200191610c00565b820191906000526020600020905b815481529060010190602001808311610be357829003601f168201915b5050505050828281518110610c1857610c176124ba565b5b60200260200101819052508080610c2e90612578565b915050610a1c565b508282829550955095505050509193909250565b60008082815260200190815260200160002060030154341015610ca2576040517f08c379a0000000000000000000000000000000000000000000000000000000008152600401610c999061260c565b60405180910390fd5b3373ffffffffffffffffffffffffffffffffffffffff166108fc6000808481526020019081526020016000206003015434610cdd919061262c565b9081150290604051600060405180830381858888f19350505050158015610d08573d6000803e3d6000fd5b507fb0555ee686761aafa443e3163371ca03ee23d933eb31c75f7796052fd39f3193336000808481526020019081526020016000206003015434610d4c919061262c565b604051610d5a92919061267e565b60405180910390a160008082815260200190815260200160002060020160009054906101000a900473ffffffffffffffffffffffffffffffffffffffff1673ffffffffffffffffffffffffffffffffffffffff166108fc600080848152602001908152602001600020600301549081150290604051600060405180830381858888f19350505050158015610df2573d6000803e3d6000fd5b50600080828152602001908152602001600020600501339080600181540180825580915050600190039060005260206000200160009091909190916101000a81548173ffffffffffffffffffffffffffffffffffffffff021916908373ffffffffffffffffffffffffffffffffffffffff16021790555050565b6060610e7733611b42565b15610f21576000808381526020019081526020016000206000018054610e9c90612518565b80601f0160208091040260200160405190810160405280929190818152602001828054610ec890612518565b8015610f155780601f10610eea57610100808354040283529160200191610f15565b820191906000526020600020905b815481529060010190602001808311610ef857829003601f168201915b50505050509050610f5a565b6040518060400160405280601a81526020017f596f7520646f6e2774206861766520746865206163636573732100000000000081525090505b919050565b606060005b60016000848152602001908152602001600020600501805490508110156110c457600160008481526020019081526020016000206005018181548110610fad57610fac6124ba565b5b9060005260206000200160009054906101000a900473ffffffffffffffffffffffffffffffffffffffff1673ffffffffffffffffffffffffffffffffffffffff163373ffffffffffffffffffffffffffffffffffffffff16036110b15760016000848152602001908152602001600020600001805461102b90612518565b80601f016020809104026020016040519081016040528092919081815260200182805461105790612518565b80156110a45780601f10611079576101008083540402835291602001916110a4565b820191906000526020600020905b81548152906001019060200180831161108757829003601f168201915b50505050509150506110e1565b80806110bc90612578565b915050610f64565b50604051806060016040528060238152602001612a196023913990505b919050565b60608060606000845167ffffffffffffffff81111561110857611107611e52565b5b60405190808252806020026020018201604052801561113b57816020015b60608152602001906001900390816111265790505b5090506000855167ffffffffffffffff81111561115b5761115a611e52565b5b6040519080825280602002602001820160405280156111895781602001602082028036833780820191505090505b5090506000865167ffffffffffffffff8111156111a9576111a8611e52565b5b6040519080825280602002602001820160405280156111dc57816020015b60608152602001906001900390816111c75790505b50905060005b87518110156113f957600080898381518110611201576112006124ba565b5b60200260200101518152602001908152602001600020600101805461122590612518565b80601f016020809104026020016040519081016040528092919081815260200182805461125190612518565b801561129e5780601f106112735761010080835404028352916020019161129e565b820191906000526020600020905b81548152906001019060200180831161128157829003601f168201915b50505050508482815181106112b6576112b56124ba565b5b60200260200101819052506000808983815181106112d7576112d66124ba565b5b6020026020010151815260200190815260200160002060030154838281518110611304576113036124ba565b5b602002602001018181525050600080898381518110611326576113256124ba565b5b60200260200101518152602001908152602001600020600401805461134a90612518565b80601f016020809104026020016040519081016040528092919081815260200182805461137690612518565b80156113c35780601f10611398576101008083540402835291602001916113c3565b820191906000526020600020905b8154815290600101906020018083116113a657829003601f168201915b50505050508282815181106113db576113da6124ba565b5b602002602001018190525080806113f190612578565b9150506111e2565b508282829550955095505050509193909250565b6040518060c001604052808681526020018581526020013373ffffffffffffffffffffffffffffffffffffffff168152602001848152602001828152602001600067ffffffffffffffff81111561146757611466611e52565b5b6040519080825280602002602001820160405280156114955781602001602082028036833780820191505090505b50815250600080600354815260200190815260200160002060008201518160000190816114c29190612912565b5060208201518160010190816114d89190612912565b5060408201518160020160006101000a81548173ffffffffffffffffffffffffffffffffffffffff021916908373ffffffffffffffffffffffffffffffffffffffff16021790555060608201518160030155608082015181600401908161153f9190612912565b5060a082015181600501908051906020019061155c929190611b98565b509050506001151582151503611771576007543410156115b1576040517f08c379a00000000000000000000000000000000000000000000000000000000081526004016115a890612746565b60405180910390fd5b60405180604001604052806001151581526020013373ffffffffffffffffffffffffffffffffffffffff168152506002866040516115ef91906126e3565b908152602001604051809103902060008201518160000160006101000a81548160ff02191690831515021790555060208201518160000160016101000a81548173ffffffffffffffffffffffffffffffffffffffff021916908373ffffffffffffffffffffffffffffffffffffffff1602179055509050503373ffffffffffffffffffffffffffffffffffffffff166108fc6007543461168f919061262c565b9081150290604051600060405180830381858888f193505050501580156116ba573d6000803e3d6000fd5b507fb0555ee686761aafa443e3163371ca03ee23d933eb31c75f7796052fd39f319333600754346116eb919061262c565b6040516116f992919061267e565b60405180910390a1600860009054906101000a900473ffffffffffffffffffffffffffffffffffffffff1673ffffffffffffffffffffffffffffffffffffffff166108fc6007549081150290604051600060405180830381858888f1935050505015801561176b573d6000803e3d6000fd5b50611828565b60405180604001604052806000151581526020013373ffffffffffffffffffffffffffffffffffffffff168152506002866040516117af91906126e3565b908152602001604051809103902060008201518160000160006101000a81548160ff02191690831515021790555060208201518160000160016101000a81548173ffffffffffffffffffffffffffffffffffffffff021916908373ffffffffffffffffffffffffffffffffffffffff1602179055509050505b6004600354908060018154018082558091505060019003906000526020600020016000909190919091505560016003600082825461186691906129e4565b925050819055505050505050565b600060028260405161188691906126e3565b908152602001604051809103902060000160019054906101000a900473ffffffffffffffffffffffffffffffffffffffff1673ffffffffffffffffffffffffffffffffffffffff163373ffffffffffffffffffffffffffffffffffffffff1603611920576002826040516118fa91906126e3565b908152602001604051809103902060000160009054906101000a900460ff169050611925565b600090505b919050565b6040518060c001604052808481526020018581526020018673ffffffffffffffffffffffffffffffffffffffff168152602001838152602001828152602001600067ffffffffffffffff81111561198457611983611e52565b5b6040519080825280602002602001820160405280156119b25781602001602082028036833780820191505090505b5081525060016000600554815260200190815260200160002060008201518160000190816119e09190612912565b5060208201518160010190816119f69190612912565b5060408201518160020160006101000a81548173ffffffffffffffffffffffffffffffffffffffff021916908373ffffffffffffffffffffffffffffffffffffffff160217905550606082015181600301556080820151816004019081611a5d9190612912565b5060a0820151816005019080519060200190611a7a929190611b98565b5090505060066005549080600181540180825580915050600190039060005260206000200160009091909190915055600160056000828254611abc91906129e4565b925050819055505050505050565b60096020528060005260406000206000915054906101000a900460ff1681565b60606006805480602002602001604051908101604052809291908181526020018280548015611b3857602002820191906000526020600020905b815481526020019060010190808311611b24575b5050505050905090565b6000600960008373ffffffffffffffffffffffffffffffffffffffff1673ffffffffffffffffffffffffffffffffffffffff16815260200190815260200160002060009054906101000a900460ff169050919050565b828054828255906000526020600020908101928215611c11579160200282015b82811115611c105782518260006101000a81548173ffffffffffffffffffffffffffffffffffffffff021916908373ffffffffffffffffffffffffffffffffffffffff16021790555091602001919060010190611bb8565b5b509050611c1e9190611c22565b5090565b5b80821115611c3b576000816000905550600101611c23565b5090565b6000604051905090565b600080fd5b600080fd5b6000819050919050565b611c6681611c53565b8114611c7157600080fd5b50565b600081359050611c8381611c5d565b92915050565b600060208284031215611c9f57611c9e611c49565b5b6000611cad84828501611c74565b91505092915050565b600081519050919050565b600082825260208201905092915050565b60005b83811015611cf0578082015181840152602081019050611cd5565b60008484015250505050565b6000601f19601f8301169050919050565b6000611d1882611cb6565b611d228185611cc1565b9350611d32818560208601611cd2565b611d3b81611cfc565b840191505092915050565b60006020820190508181036000830152611d608184611d0d565b905092915050565b600081519050919050565b600082825260208201905092915050565b6000819050602082019050919050565b611d9d81611c53565b82525050565b6000611daf8383611d94565b60208301905092915050565b6000602082019050919050565b6000611dd382611d68565b611ddd8185611d73565b9350611de883611d84565b8060005b83811015611e19578151611e008882611da3565b9750611e0b83611dbb565b925050600181019050611dec565b5085935050505092915050565b60006020820190508181036000830152611e408184611dc8565b905092915050565b600080fd5b600080fd5b7f4e487b7100000000000000000000000000000000000000000000000000000000600052604160045260246000fd5b611e8a82611cfc565b810181811067ffffffffffffffff82111715611ea957611ea8611e52565b5b80604052505050565b6000611ebc611c3f565b9050611ec88282611e81565b919050565b600067ffffffffffffffff821115611ee857611ee7611e52565b5b611ef182611cfc565b9050602081019050919050565b82818337600083830152505050565b6000611f20611f1b84611ecd565b611eb2565b905082815260208101848484011115611f3c57611f3b611e4d565b5b611f47848285611efe565b509392505050565b600082601f830112611f6457611f63611e48565b5b8135611f74848260208601611f0d565b91505092915050565b600060208284031215611f9357611f92611c49565b5b600082013567ffffffffffffffff811115611fb157611fb0611c4e565b5b611fbd84828501611f4f565b91505092915050565b600067ffffffffffffffff821115611fe157611fe0611e52565b5b602082029050602081019050919050565b600080fd5b600061200a61200584611fc6565b611eb2565b9050808382526020820190506020840283018581111561202d5761202c611ff2565b5b835b8181101561205657806120428882611c74565b84526020840193505060208101905061202f565b5050509392505050565b600082601f83011261207557612074611e48565b5b8135612085848260208601611ff7565b91505092915050565b6000602082840312156120a4576120a3611c49565b5b600082013567ffffffffffffffff8111156120c2576120c1611c4e565b5b6120ce84828501612060565b91505092915050565b600081519050919050565b600082825260208201905092915050565b6000819050602082019050919050565b600082825260208201905092915050565b600061211f82611cb6565b6121298185612103565b9350612139818560208601611cd2565b61214281611cfc565b840191505092915050565b60006121598383612114565b905092915050565b6000602082019050919050565b6000612179826120d7565b61218381856120e2565b935083602082028501612195856120f3565b8060005b858110156121d157848403895281516121b2858261214d565b94506121bd83612161565b925060208a01995050600181019050612199565b50829750879550505050505092915050565b600060608201905081810360008301526121fd818661216e565b905081810360208301526122118185611dc8565b90508181036040830152612225818461216e565b9050949350505050565b60008115159050919050565b6122448161222f565b811461224f57600080fd5b50565b6000813590506122618161223b565b92915050565b600080600080600060a0868803121561228357612282611c49565b5b600086013567ffffffffffffffff8111156122a1576122a0611c4e565b5b6122ad88828901611f4f565b955050602086013567ffffffffffffffff8111156122ce576122cd611c4e565b5b6122da88828901611f4f565b94505060406122eb88828901611c74565b93505060606122fc88828901612252565b925050608086013567ffffffffffffffff81111561231d5761231c611c4e565b5b61232988828901611f4f565b9150509295509295909350565b61233f8161222f565b82525050565b600060208201905061235a6000830184612336565b92915050565b600073ffffffffffffffffffffffffffffffffffffffff82169050919050565b600061238b82612360565b9050919050565b61239b81612380565b81146123a657600080fd5b50565b6000813590506123b881612392565b92915050565b600080600080600060a086880312156123da576123d9611c49565b5b60006123e8888289016123a9565b955050602086013567ffffffffffffffff81111561240957612408611c4e565b5b61241588828901611f4f565b945050604086013567ffffffffffffffff81111561243657612435611c4e565b5b61244288828901611f4f565b935050606061245388828901611c74565b925050608086013567ffffffffffffffff81111561247457612473611c4e565b5b61248088828901611f4f565b9150509295509295909350565b6000602082840312156124a3576124a2611c49565b5b60006124b1848285016123a9565b91505092915050565b7f4e487b7100000000000000000000000000000000000000000000000000000000600052603260045260246000fd5b7f4e487b7100000000000000000000000000000000000000000000000000000000600052602260045260246000fd5b6000600282049050600182168061253057607f821691505b602082108103612543576125426124e9565b5b50919050565b7f4e487b7100000000000000000000000000000000000000000000000000000000600052601160045260246000fd5b600061258382611c53565b91507fffffffffffffffffffffffffffffffffffffffffffffffffffffffffffffffff82036125b5576125b4612549565b5b600182019050919050565b7f496e64617175617465204554482073656e740000000000000000000000000000600082015250565b60006125f6601283611cc1565b9150612601826125c0565b602082019050919050565b60006020820190508181036000830152612625816125e9565b9050919050565b600061263782611c53565b915061264283611c53565b925082820390508181111561265a57612659612549565b5b92915050565b61266981612380565b82525050565b61267881611c53565b82525050565b60006040820190506126936000830185612660565b6126a0602083018461266f565b9392505050565b600081905092915050565b60006126bd82611cb6565b6126c781856126a7565b93506126d7818560208601611cd2565b80840191505092915050565b60006126ef82846126b2565b915081905092915050565b7f496e6164657175617465204554482073656e7400000000000000000000000000600082015250565b6000612730601383611cc1565b915061273b826126fa565b602082019050919050565b6000602082019050818103600083015261275f81612723565b9050919050565b60008190508160005260206000209050919050565b60006020601f8301049050919050565b600082821b905092915050565b6000600883026127c87fffffffffffffffffffffffffffffffffffffffffffffffffffffffffffffffff8261278b565b6127d2868361278b565b95508019841693508086168417925050509392505050565b6000819050919050565b600061280f61280a61280584611c53565b6127ea565b611c53565b9050919050565b6000819050919050565b612829836127f4565b61283d61283582612816565b848454612798565b825550505050565b600090565b612852612845565b61285d818484612820565b505050565b5b818110156128815761287660008261284a565b600181019050612863565b5050565b601f8211156128c65761289781612766565b6128a08461277b565b810160208510156128af578190505b6128c36128bb8561277b565b830182612862565b50505b505050565b600082821c905092915050565b60006128e9600019846008026128cb565b1980831691505092915050565b600061290283836128d8565b9150826002028217905092915050565b61291b82611cb6565b67ffffffffffffffff81111561293457612933611e52565b5b61293e8254612518565b612949828285612885565b600060209050601f83116001811461297c576000841561296a578287015190505b61297485826128f6565b8655506129dc565b601f19841661298a86612766565b60005b828110156129b25784890151825560018201915060208501945060208101905061298d565b868310156129cf57848901516129cb601f8916826128d8565b8355505b6001600288020188555050505b505050505050565b60006129ef82611c53565b91506129fa83611c53565b9250828201905080821115612a1257612a11612549565b5b9291505056fe596f7520686176656e277420707572636861736564207468697320617069206b657921596f7520686176656e2774207075726368617365642074686973206461746173657421a26469706673582212205a5221ec0e821948f7b297bb1a7ab8e546416f1afe297b3983e2451179e6301b64736f6c63430008110033",
  "linkReferences": {},
  "deployedLinkReferences": {}
}