{
  "_format": "hh-sol-artifact-1",
  "contractName": "data_transaction",
  "sourceName": "contracts/data_transaction_smart_contract.sol",
  "abi": [
    {
      "anonymous": false,
      "inputs": [
        {
          "indexed": false,
          "internalType": "address",
          "name": "",
          "type": "address"
        },
        {
          "indexed": false,
          "internalType": "uint256",
          "name": "",
          "type": "uint256"
        }
      ],
      "name": "excess_eth_returned",
      "type": "event"
    },
    {
      "inputs": [
        {
          "internalType": "uint256",
          "name": "data_id",
          "type": "uint256"
        }
      ],
      "name": "purchaseData",
      "outputs": [],
      "stateMutability": "payable",
      "type": "function"
    },
    {
      "inputs": [
        {
          "internalType": "uint256[]",
          "name": "data_id_list",
          "type": "uint256[]"
        }
      ],
      "name": "retrieve_raw_data_info",
      "outputs": [
        {
          "internalType": "string[]",
          "name": "",
          "type": "string[]"
        },
        {
          "internalType": "uint256[]",
          "name": "",
          "type": "uint256[]"
        },
        {
          "internalType": "string[]",
          "name": "",
          "type": "string[]"
        },
        {
          "internalType": "string[]",
          "name": "",
          "type": "string[]"
        }
      ],
      "stateMutability": "view",
      "type": "function"
    },
    {
      "inputs": [
        {
          "internalType": "string",
          "name": "data_hash",
          "type": "string"
        },
        {
          "internalType": "string",
          "name": "dataset_name",
          "type": "string"
        },
        {
          "internalType": "string",
          "name": "data_category",
          "type": "string"
        },
        {
          "internalType": "uint256",
          "name": "price",
          "type": "uint256"
        },
        {
          "internalType": "string",
          "name": "data_description",
          "type": "string"
        }
      ],
      "name": "uploadData",
      "outputs": [],
      "stateMutability": "payable",
      "type": "function"
    },
    {
      "inputs": [],
      "name": "view_ml_key_id_list",
      "outputs": [
        {
          "internalType": "uint256[]",
          "name": "",
          "type": "uint256[]"
        }
      ],
      "stateMutability": "view",
      "type": "function"
    },
    {
      "inputs": [
        {
          "internalType": "uint256",
          "name": "data_id",
          "type": "uint256"
        }
      ],
      "name": "view_purchased_raw_data",
      "outputs": [
        {
          "internalType": "string",
          "name": "",
          "type": "string"
        }
      ],
      "stateMutability": "view",
      "type": "function"
    },
    {
      "inputs": [],
      "name": "view_raw_data_id_list",
      "outputs": [
        {
          "internalType": "uint256[]",
          "name": "",
          "type": "uint256[]"
        }
      ],
      "stateMutability": "view",
      "type": "function"
    },
    {
      "stateMutability": "payable",
      "type": "receive"
    }
  ],
  "bytecode": "0x608060405273cd9edcee608e3d7d8cb3a82fe7ac5aad7cf54e59600660006101000a81548173ffffffffffffffffffffffffffffffffffffffff021916908373ffffffffffffffffffffffffffffffffffffffff16021790555034801561006557600080fd5b506118ce806100756000396000f3fe6080604052600436106100595760003560e01c80630d182322146100655780634325233d146100a257806384c4f594146100cd5780638f2ff1f0146100e9578063d1993e6a14610105578063f51c33221461014557610060565b3661006057005b600080fd5b34801561007157600080fd5b5061008c60048036038101906100879190610d47565b610170565b6040516100999190610e04565b60405180910390f35b3480156100ae57600080fd5b506100b76102f4565b6040516100c49190610ee4565b60405180910390f35b6100e760048036038101906100e29190610d47565b61034c565b005b61010360048036038101906100fe919061103b565b61056e565b005b34801561011157600080fd5b5061012c600480360381019061012791906111ee565b6107a9565b60405161013c9493929190611343565b60405180910390f35b34801561015157600080fd5b5061015a610bfe565b6040516101679190610ee4565b60405180910390f35b606060005b600080848152602001908152602001600020600601805490508110156102d25760008084815260200190815260200160002060060181815481106101bc576101bb6113a4565b5b9060005260206000200160009054906101000a900473ffffffffffffffffffffffffffffffffffffffff1673ffffffffffffffffffffffffffffffffffffffff163373ffffffffffffffffffffffffffffffffffffffff16036102bf57600080848152602001908152602001600020600001805461023990611402565b80601f016020809104026020016040519081016040528092919081815260200182805461026590611402565b80156102b25780601f10610287576101008083540402835291602001916102b2565b820191906000526020600020905b81548152906001019060200180831161029557829003601f168201915b50505050509150506102ef565b80806102ca90611462565b915050610175565b506040518060600160405280602381526020016118766023913990505b919050565b6060600380548060200260200160405190810160405280929190818152602001828054801561034257602002820191906000526020600020905b81548152602001906001019080831161032e575b5050505050905090565b600080828152602001908152602001600020600401543410156103a4576040517f08c379a000000000000000000000000000000000000000000000000000000000815260040161039b906114f6565b60405180910390fd5b3373ffffffffffffffffffffffffffffffffffffffff166108fc60008084815260200190815260200160002060040154346103df9190611516565b9081150290604051600060405180830381858888f1935050505015801561040a573d6000803e3d6000fd5b507fb0555ee686761aafa443e3163371ca03ee23d933eb31c75f7796052fd39f319333600080848152602001908152602001600020600401543461044e9190611516565b60405161045c92919061159a565b60405180910390a160008082815260200190815260200160002060030160009054906101000a900473ffffffffffffffffffffffffffffffffffffffff1673ffffffffffffffffffffffffffffffffffffffff166108fc600080848152602001908152602001600020600401549081150290604051600060405180830381858888f193505050501580156104f4573d6000803e3d6000fd5b50600080828152602001908152602001600020600601339080600181540180825580915050600190039060005260206000200160009091909190916101000a81548173ffffffffffffffffffffffffffffffffffffffff021916908373ffffffffffffffffffffffffffffffffffffffff16021790555050565b6040518060e001604052808681526020018581526020018481526020013373ffffffffffffffffffffffffffffffffffffffff168152602001838152602001828152602001600067ffffffffffffffff8111156105ce576105cd610f10565b5b6040519080825280602002602001820160405280156105fc5781602001602082028036833780820191505090505b5081525060008060025481526020019081526020016000206000820151816000019081610629919061176f565b50602082015181600101908161063f919061176f565b506040820151816002019081610655919061176f565b5060608201518160030160006101000a81548173ffffffffffffffffffffffffffffffffffffffff021916908373ffffffffffffffffffffffffffffffffffffffff1602179055506080820151816004015560a08201518160050190816106bc919061176f565b5060c08201518160060190805190602001906106d9929190610c56565b509050503373ffffffffffffffffffffffffffffffffffffffff166108fc349081150290604051600060405180830381858888f19350505050158015610723573d6000803e3d6000fd5b507fb0555ee686761aafa443e3163371ca03ee23d933eb31c75f7796052fd39f3193333460405161075592919061159a565b60405180910390a16003600254908060018154018082558091505060019003906000526020600020016000909190919091505560016002600082825461079b9190611841565b925050819055505050505050565b6060806060806000855167ffffffffffffffff8111156107cc576107cb610f10565b5b6040519080825280602002602001820160405280156107ff57816020015b60608152602001906001900390816107ea5790505b5090506000865167ffffffffffffffff81111561081f5761081e610f10565b5b60405190808252806020026020018201604052801561084d5781602001602082028036833780820191505090505b5090506000875167ffffffffffffffff81111561086d5761086c610f10565b5b6040519080825280602002602001820160405280156108a057816020015b606081526020019060019003908161088b5790505b5090506000885167ffffffffffffffff8111156108c0576108bf610f10565b5b6040519080825280602002602001820160405280156108f357816020015b60608152602001906001900390816108de5790505b50905060005b8951811015610be6576000808b8381518110610918576109176113a4565b5b60200260200101518152602001908152602001600020600101805461093c90611402565b80601f016020809104026020016040519081016040528092919081815260200182805461096890611402565b80156109b55780601f1061098a576101008083540402835291602001916109b5565b820191906000526020600020905b81548152906001019060200180831161099857829003601f168201915b50505050508582815181106109cd576109cc6113a4565b5b60200260200101819052506000808b83815181106109ee576109ed6113a4565b5b6020026020010151815260200190815260200160002060040154848281518110610a1b57610a1a6113a4565b5b6020026020010181815250506000808b8381518110610a3d57610a3c6113a4565b5b602002602001015181526020019081526020016000206002018054610a6190611402565b80601f0160208091040260200160405190810160405280929190818152602001828054610a8d90611402565b8015610ada5780601f10610aaf57610100808354040283529160200191610ada565b820191906000526020600020905b815481529060010190602001808311610abd57829003601f168201915b5050505050838281518110610af257610af16113a4565b5b60200260200101819052506000808b8381518110610b1357610b126113a4565b5b602002602001015181526020019081526020016000206005018054610b3790611402565b80601f0160208091040260200160405190810160405280929190818152602001828054610b6390611402565b8015610bb05780601f10610b8557610100808354040283529160200191610bb0565b820191906000526020600020905b815481529060010190602001808311610b9357829003601f168201915b5050505050828281518110610bc857610bc76113a4565b5b60200260200101819052508080610bde90611462565b9150506108f9565b50838383839750975097509750505050509193509193565b60606005805480602002602001604051908101604052809291908181526020018280548015610c4c57602002820191906000526020600020905b815481526020019060010190808311610c38575b5050505050905090565b828054828255906000526020600020908101928215610ccf579160200282015b82811115610cce5782518260006101000a81548173ffffffffffffffffffffffffffffffffffffffff021916908373ffffffffffffffffffffffffffffffffffffffff16021790555091602001919060010190610c76565b5b509050610cdc9190610ce0565b5090565b5b80821115610cf9576000816000905550600101610ce1565b5090565b6000604051905090565b600080fd5b600080fd5b6000819050919050565b610d2481610d11565b8114610d2f57600080fd5b50565b600081359050610d4181610d1b565b92915050565b600060208284031215610d5d57610d5c610d07565b5b6000610d6b84828501610d32565b91505092915050565b600081519050919050565b600082825260208201905092915050565b60005b83811015610dae578082015181840152602081019050610d93565b60008484015250505050565b6000601f19601f8301169050919050565b6000610dd682610d74565b610de08185610d7f565b9350610df0818560208601610d90565b610df981610dba565b840191505092915050565b60006020820190508181036000830152610e1e8184610dcb565b905092915050565b600081519050919050565b600082825260208201905092915050565b6000819050602082019050919050565b610e5b81610d11565b82525050565b6000610e6d8383610e52565b60208301905092915050565b6000602082019050919050565b6000610e9182610e26565b610e9b8185610e31565b9350610ea683610e42565b8060005b83811015610ed7578151610ebe8882610e61565b9750610ec983610e79565b925050600181019050610eaa565b5085935050505092915050565b60006020820190508181036000830152610efe8184610e86565b905092915050565b600080fd5b600080fd5b7f4e487b7100000000000000000000000000000000000000000000000000000000600052604160045260246000fd5b610f4882610dba565b810181811067ffffffffffffffff82111715610f6757610f66610f10565b5b80604052505050565b6000610f7a610cfd565b9050610f868282610f3f565b919050565b600067ffffffffffffffff821115610fa657610fa5610f10565b5b610faf82610dba565b9050602081019050919050565b82818337600083830152505050565b6000610fde610fd984610f8b565b610f70565b905082815260208101848484011115610ffa57610ff9610f0b565b5b611005848285610fbc565b509392505050565b600082601f83011261102257611021610f06565b5b8135611032848260208601610fcb565b91505092915050565b600080600080600060a0868803121561105757611056610d07565b5b600086013567ffffffffffffffff81111561107557611074610d0c565b5b6110818882890161100d565b955050602086013567ffffffffffffffff8111156110a2576110a1610d0c565b5b6110ae8882890161100d565b945050604086013567ffffffffffffffff8111156110cf576110ce610d0c565b5b6110db8882890161100d565b93505060606110ec88828901610d32565b925050608086013567ffffffffffffffff81111561110d5761110c610d0c565b5b6111198882890161100d565b9150509295509295909350565b600067ffffffffffffffff82111561114157611140610f10565b5b602082029050602081019050919050565b600080fd5b600061116a61116584611126565b610f70565b9050808382526020820190506020840283018581111561118d5761118c611152565b5b835b818110156111b657806111a28882610d32565b84526020840193505060208101905061118f565b5050509392505050565b600082601f8301126111d5576111d4610f06565b5b81356111e5848260208601611157565b91505092915050565b60006020828403121561120457611203610d07565b5b600082013567ffffffffffffffff81111561122257611221610d0c565b5b61122e848285016111c0565b91505092915050565b600081519050919050565b600082825260208201905092915050565b6000819050602082019050919050565b600082825260208201905092915050565b600061127f82610d74565b6112898185611263565b9350611299818560208601610d90565b6112a281610dba565b840191505092915050565b60006112b98383611274565b905092915050565b6000602082019050919050565b60006112d982611237565b6112e38185611242565b9350836020820285016112f585611253565b8060005b85811015611331578484038952815161131285826112ad565b945061131d836112c1565b925060208a019950506001810190506112f9565b50829750879550505050505092915050565b6000608082019050818103600083015261135d81876112ce565b905081810360208301526113718186610e86565b9050818103604083015261138581856112ce565b9050818103606083015261139981846112ce565b905095945050505050565b7f4e487b7100000000000000000000000000000000000000000000000000000000600052603260045260246000fd5b7f4e487b7100000000000000000000000000000000000000000000000000000000600052602260045260246000fd5b6000600282049050600182168061141a57607f821691505b60208210810361142d5761142c6113d3565b5b50919050565b7f4e487b7100000000000000000000000000000000000000000000000000000000600052601160045260246000fd5b600061146d82610d11565b91507fffffffffffffffffffffffffffffffffffffffffffffffffffffffffffffffff820361149f5761149e611433565b5b600182019050919050565b7f496e64617175617465204554482073656e740000000000000000000000000000600082015250565b60006114e0601283610d7f565b91506114eb826114aa565b602082019050919050565b6000602082019050818103600083015261150f816114d3565b9050919050565b600061152182610d11565b915061152c83610d11565b925082820390508181111561154457611543611433565b5b92915050565b600073ffffffffffffffffffffffffffffffffffffffff82169050919050565b60006115758261154a565b9050919050565b6115858161156a565b82525050565b61159481610d11565b82525050565b60006040820190506115af600083018561157c565b6115bc602083018461158b565b9392505050565b60008190508160005260206000209050919050565b60006020601f8301049050919050565b600082821b905092915050565b6000600883026116257fffffffffffffffffffffffffffffffffffffffffffffffffffffffffffffffff826115e8565b61162f86836115e8565b95508019841693508086168417925050509392505050565b6000819050919050565b600061166c61166761166284610d11565b611647565b610d11565b9050919050565b6000819050919050565b61168683611651565b61169a61169282611673565b8484546115f5565b825550505050565b600090565b6116af6116a2565b6116ba81848461167d565b505050565b5b818110156116de576116d36000826116a7565b6001810190506116c0565b5050565b601f821115611723576116f4816115c3565b6116fd846115d8565b8101602085101561170c578190505b611720611718856115d8565b8301826116bf565b50505b505050565b600082821c905092915050565b600061174660001984600802611728565b1980831691505092915050565b600061175f8383611735565b9150826002028217905092915050565b61177882610d74565b67ffffffffffffffff81111561179157611790610f10565b5b61179b8254611402565b6117a68282856116e2565b600060209050601f8311600181146117d957600084156117c7578287015190505b6117d18582611753565b865550611839565b601f1984166117e7866115c3565b60005b8281101561180f578489015182556001820191506020850194506020810190506117ea565b8683101561182c5784890151611828601f891682611735565b8355505b6001600288020188555050505b505050505050565b600061184c82610d11565b915061185783610d11565b925082820190508082111561186f5761186e611433565b5b9291505056fe596f7520686176656e2774207075726368617365642074686973206461746173657421a264697066735822122071da109d6b662ddee441f333caa72263c0d8010ad36750249524f763f8a21c6564736f6c63430008110033",
  "linkReferences": {},
  "deployedLinkReferences": {}
}