{
  "_format": "hh-sol-artifact-1",
  "contractName": "data_transaction",
  "sourceName": "contracts/data_transaction_smart_contract.sol",
  "abi": [
    {
      "inputs": [],
      "stateMutability": "nonpayable",
      "type": "constructor"
    },
    {
      "anonymous": false,
      "inputs": [
        {
          "indexed": false,
          "internalType": "address",
          "name": "",
          "type": "address"
        },
        {
          "indexed": false,
          "internalType": "uint256",
          "name": "",
          "type": "uint256"
        }
      ],
      "name": "excess_eth_returned",
      "type": "event"
    },
    {
      "inputs": [
        {
          "internalType": "string",
          "name": "data_hash",
          "type": "string"
        }
      ],
      "name": "activate_ML_service",
      "outputs": [],
      "stateMutability": "payable",
      "type": "function"
    },
    {
      "inputs": [
        {
          "internalType": "address",
          "name": "",
          "type": "address"
        }
      ],
      "name": "adminMemberMapping",
      "outputs": [
        {
          "internalType": "bool",
          "name": "",
          "type": "bool"
        }
      ],
      "stateMutability": "view",
      "type": "function"
    },
    {
      "inputs": [
        {
          "internalType": "uint256",
          "name": "data_id",
          "type": "uint256"
        }
      ],
      "name": "internal_view_data_hash",
      "outputs": [
        {
          "internalType": "string",
          "name": "",
          "type": "string"
        }
      ],
      "stateMutability": "view",
      "type": "function"
    },
    {
      "inputs": [
        {
          "internalType": "uint256",
          "name": "data_id",
          "type": "uint256"
        }
      ],
      "name": "purchaseData",
      "outputs": [],
      "stateMutability": "payable",
      "type": "function"
    },
    {
      "inputs": [
        {
          "internalType": "uint256",
          "name": "key_id",
          "type": "uint256"
        }
      ],
      "name": "purchase_ML_API",
      "outputs": [],
      "stateMutability": "payable",
      "type": "function"
    },
    {
      "inputs": [
        {
          "internalType": "uint256[]",
          "name": "ml_key_list",
          "type": "uint256[]"
        }
      ],
      "name": "retrieve_ml_product_info",
      "outputs": [
        {
          "internalType": "string[]",
          "name": "",
          "type": "string[]"
        },
        {
          "internalType": "uint256[]",
          "name": "",
          "type": "uint256[]"
        },
        {
          "internalType": "string[]",
          "name": "",
          "type": "string[]"
        }
      ],
      "stateMutability": "view",
      "type": "function"
    },
    {
      "inputs": [
        {
          "internalType": "uint256[]",
          "name": "data_id_list",
          "type": "uint256[]"
        }
      ],
      "name": "retrieve_raw_data_info",
      "outputs": [
        {
          "internalType": "string[]",
          "name": "",
          "type": "string[]"
        },
        {
          "internalType": "uint256[]",
          "name": "",
          "type": "uint256[]"
        },
        {
          "internalType": "string[]",
          "name": "",
          "type": "string[]"
        },
        {
          "internalType": "string[]",
          "name": "",
          "type": "string[]"
        }
      ],
      "stateMutability": "view",
      "type": "function"
    },
    {
      "inputs": [
        {
          "internalType": "string",
          "name": "data_hash",
          "type": "string"
        },
        {
          "internalType": "string",
          "name": "dataset_name",
          "type": "string"
        },
        {
          "internalType": "string",
          "name": "data_category",
          "type": "string"
        },
        {
          "internalType": "uint256",
          "name": "price",
          "type": "uint256"
        },
        {
          "internalType": "bool",
          "name": "purchase_ML",
          "type": "bool"
        },
        {
          "internalType": "string",
          "name": "data_description",
          "type": "string"
        }
      ],
      "name": "uploadData",
      "outputs": [],
      "stateMutability": "payable",
      "type": "function"
    },
    {
      "inputs": [
        {
          "internalType": "address",
          "name": "seller",
          "type": "address"
        },
        {
          "internalType": "string",
          "name": "ml_product_name",
          "type": "string"
        },
        {
          "internalType": "string",
          "name": "api_key",
          "type": "string"
        },
        {
          "internalType": "uint256",
          "name": "price",
          "type": "uint256"
        },
        {
          "internalType": "string",
          "name": "description",
          "type": "string"
        }
      ],
      "name": "upload_ML_API_key",
      "outputs": [],
      "stateMutability": "nonpayable",
      "type": "function"
    },
    {
      "inputs": [
        {
          "internalType": "string",
          "name": "data_hash",
          "type": "string"
        }
      ],
      "name": "view_ML_status",
      "outputs": [
        {
          "internalType": "bool",
          "name": "",
          "type": "bool"
        }
      ],
      "stateMutability": "view",
      "type": "function"
    },
    {
      "inputs": [],
      "name": "view_ml_key_id_list",
      "outputs": [
        {
          "internalType": "uint256[]",
          "name": "",
          "type": "uint256[]"
        }
      ],
      "stateMutability": "view",
      "type": "function"
    },
    {
      "inputs": [
        {
          "internalType": "uint256",
          "name": "key_id",
          "type": "uint256"
        }
      ],
      "name": "view_purchased_ml_api_key",
      "outputs": [
        {
          "internalType": "string",
          "name": "",
          "type": "string"
        }
      ],
      "stateMutability": "view",
      "type": "function"
    },
    {
      "inputs": [
        {
          "internalType": "uint256",
          "name": "data_id",
          "type": "uint256"
        }
      ],
      "name": "view_purchased_raw_data",
      "outputs": [
        {
          "internalType": "string",
          "name": "",
          "type": "string"
        }
      ],
      "stateMutability": "view",
      "type": "function"
    },
    {
      "inputs": [],
      "name": "view_raw_data_id_list",
      "outputs": [
        {
          "internalType": "uint256[]",
          "name": "",
          "type": "uint256[]"
        }
      ],
      "stateMutability": "view",
      "type": "function"
    },
    {
      "stateMutability": "payable",
      "type": "receive"
    }
  ],
  "bytecode": "0x6080604052600160075573cd9edcee608e3d7d8cb3a82fe7ac5aad7cf54e59600860006101000a81548173ffffffffffffffffffffffffffffffffffffffff021916908373ffffffffffffffffffffffffffffffffffffffff16021790555034801561006a57600080fd5b5060016009600073cd9edcee608e3d7d8cb3a82fe7ac5aad7cf54e5973ffffffffffffffffffffffffffffffffffffffff1673ffffffffffffffffffffffffffffffffffffffff16815260200190815260200160002060006101000a81548160ff02191690831515021790555060016009600073c834e96dd8788ce1702c589dd56ca7415a04117773ffffffffffffffffffffffffffffffffffffffff1673ffffffffffffffffffffffffffffffffffffffff16815260200190815260200160002060006101000a81548160ff02191690831515021790555060016009600073470bcf448e819306fa7ad1aa5ed5ed669b933c2b73ffffffffffffffffffffffffffffffffffffffff1673ffffffffffffffffffffffffffffffffffffffff16815260200190815260200160002060006101000a81548160ff021916908315150217905550612c6f806101be6000396000f3fe6080604052600436106100e15760003560e01c80639a020acb1161007f578063dd8423a911610059578063dd8423a9146102be578063e84df33d146102fb578063ea1f2c0e14610324578063f51c332214610361576100e8565b80639a020acb14610204578063cc0e37cd14610241578063d1993e6a1461027e576100e8565b80634325233d116100bb5780634325233d14610162578063440034ab1461018d578063650f7b54146101a957806384c4f594146101e8576100e8565b80630d182322146100ed5780632410ae081461012a5780633c06dae614610146576100e8565b366100e857005b600080fd5b3480156100f957600080fd5b50610114600480360381019061010f9190611dd5565b61038c565b6040516101219190611e92565b60405180910390f35b610144600480360381019061013f9190611dd5565b610510565b005b610160600480360381019061015b9190612021565b610738565b005b34801561016e57600080fd5b50610177610bbc565b60405161018491906121dc565b60405180910390f35b6101a760048036038101906101a291906121fe565b610c14565b005b3480156101b557600080fd5b506101d060048036038101906101cb919061230f565b610da5565b6040516101df93929190612464565b60405180910390f35b61020260048036038101906101fd9190611dd5565b6110cf565b005b34801561021057600080fd5b5061022b60048036038101906102269190611dd5565b6112f1565b6040516102389190611e92565b60405180910390f35b34801561024d57600080fd5b5061026860048036038101906102639190611dd5565b6113e4565b6040516102759190611e92565b60405180910390f35b34801561028a57600080fd5b506102a560048036038101906102a0919061230f565b61156b565b6040516102b594939291906124b0565b60405180910390f35b3480156102ca57600080fd5b506102e560048036038101906102e091906121fe565b6119c0565b6040516102f29190612520565b60405180910390f35b34801561030757600080fd5b50610322600480360381019061031d9190612599565b611a76565b005b34801561033057600080fd5b5061034b60048036038101906103469190612668565b611c16565b6040516103589190612520565b60405180910390f35b34801561036d57600080fd5b50610376611c36565b60405161038391906121dc565b60405180910390f35b606060005b600080848152602001908152602001600020600601805490508110156104ee5760008084815260200190815260200160002060060181815481106103d8576103d7612695565b5b9060005260206000200160009054906101000a900473ffffffffffffffffffffffffffffffffffffffff1673ffffffffffffffffffffffffffffffffffffffff163373ffffffffffffffffffffffffffffffffffffffff16036104db576000808481526020019081526020016000206000018054610455906126f3565b80601f0160208091040260200160405190810160405280929190818152602001828054610481906126f3565b80156104ce5780601f106104a3576101008083540402835291602001916104ce565b820191906000526020600020905b8154815290600101906020018083116104b157829003601f168201915b505050505091505061050b565b80806104e690612753565b915050610391565b50604051806060016040528060238152602001612c176023913990505b919050565b6001600082815260200190815260200160002060030154341015610569576040517f08c379a0000000000000000000000000000000000000000000000000000000008152600401610560906127e7565b60405180910390fd5b3373ffffffffffffffffffffffffffffffffffffffff166108fc6001600084815260200190815260200160002060030154346105a59190612807565b9081150290604051600060405180830381858888f193505050501580156105d0573d6000803e3d6000fd5b507fb0555ee686761aafa443e3163371ca03ee23d933eb31c75f7796052fd39f3193336001600084815260200190815260200160002060030154346106159190612807565b604051610623929190612859565b60405180910390a16001600082815260200190815260200160002060020160009054906101000a900473ffffffffffffffffffffffffffffffffffffffff1673ffffffffffffffffffffffffffffffffffffffff166108fc60016000848152602001908152602001600020600301549081150290604051600060405180830381858888f193505050501580156106bd573d6000803e3d6000fd5b5060016000828152602001908152602001600020600501339080600181540180825580915050600190039060005260206000200160009091909190916101000a81548173ffffffffffffffffffffffffffffffffffffffff021916908373ffffffffffffffffffffffffffffffffffffffff16021790555050565b6040518060e001604052808781526020018681526020018581526020013373ffffffffffffffffffffffffffffffffffffffff168152602001848152602001828152602001600067ffffffffffffffff81111561079857610797611ebe565b5b6040519080825280602002602001820160405280156107c65781602001602082028036833780820191505090505b50815250600080600354815260200190815260200160002060008201518160000190816107f39190612a2e565b5060208201518160010190816108099190612a2e565b50604082015181600201908161081f9190612a2e565b5060608201518160030160006101000a81548173ffffffffffffffffffffffffffffffffffffffff021916908373ffffffffffffffffffffffffffffffffffffffff1602179055506080820151816004015560a08201518160050190816108869190612a2e565b5060c08201518160060190805190602001906108a3929190611ce4565b509050506001151582151503610ab8576007543410156108f8576040517f08c379a00000000000000000000000000000000000000000000000000000000081526004016108ef90612b4c565b60405180910390fd5b60405180604001604052806001151581526020013373ffffffffffffffffffffffffffffffffffffffff168152506002876040516109369190612ba8565b908152602001604051809103902060008201518160000160006101000a81548160ff02191690831515021790555060208201518160000160016101000a81548173ffffffffffffffffffffffffffffffffffffffff021916908373ffffffffffffffffffffffffffffffffffffffff1602179055509050503373ffffffffffffffffffffffffffffffffffffffff166108fc600754346109d69190612807565b9081150290604051600060405180830381858888f19350505050158015610a01573d6000803e3d6000fd5b507fb0555ee686761aafa443e3163371ca03ee23d933eb31c75f7796052fd39f31933360075434610a329190612807565b604051610a40929190612859565b60405180910390a1600860009054906101000a900473ffffffffffffffffffffffffffffffffffffffff1673ffffffffffffffffffffffffffffffffffffffff166108fc6007549081150290604051600060405180830381858888f19350505050158015610ab2573d6000803e3d6000fd5b50610b6f565b60405180604001604052806000151581526020013373ffffffffffffffffffffffffffffffffffffffff16815250600287604051610af69190612ba8565b908152602001604051809103902060008201518160000160006101000a81548160ff02191690831515021790555060208201518160000160016101000a81548173ffffffffffffffffffffffffffffffffffffffff021916908373ffffffffffffffffffffffffffffffffffffffff1602179055509050505b60046003549080600181540180825580915050600190039060005260206000200160009091909190915055600160036000828254610bad9190612bbf565b92505081905550505050505050565b60606004805480602002602001604051908101604052809291908181526020018280548015610c0a57602002820191906000526020600020905b815481526020019060010190808311610bf6575b5050505050905090565b3373ffffffffffffffffffffffffffffffffffffffff16600282604051610c3b9190612ba8565b908152602001604051809103902060000160019054906101000a900473ffffffffffffffffffffffffffffffffffffffff1673ffffffffffffffffffffffffffffffffffffffff1603610da257600754341015610ccd576040517f08c379a0000000000000000000000000000000000000000000000000000000008152600401610cc490612b4c565b60405180910390fd5b3373ffffffffffffffffffffffffffffffffffffffff166108fc60075434610cf59190612807565b9081150290604051600060405180830381858888f19350505050158015610d20573d6000803e3d6000fd5b507fb0555ee686761aafa443e3163371ca03ee23d933eb31c75f7796052fd39f31933360075434610d519190612807565b604051610d5f929190612859565b60405180910390a16001600282604051610d799190612ba8565b908152602001604051809103902060000160006101000a81548160ff0219169083151502179055505b50565b60608060606000845167ffffffffffffffff811115610dc757610dc6611ebe565b5b604051908082528060200260200182016040528015610dfa57816020015b6060815260200190600190039081610de55790505b5090506000855167ffffffffffffffff811115610e1a57610e19611ebe565b5b604051908082528060200260200182016040528015610e485781602001602082028036833780820191505090505b5090506000865167ffffffffffffffff811115610e6857610e67611ebe565b5b604051908082528060200260200182016040528015610e9b57816020015b6060815260200190600190039081610e865790505b50905060005b87518110156110bb5760016000898381518110610ec157610ec0612695565b5b602002602001015181526020019081526020016000206001018054610ee5906126f3565b80601f0160208091040260200160405190810160405280929190818152602001828054610f11906126f3565b8015610f5e5780601f10610f3357610100808354040283529160200191610f5e565b820191906000526020600020905b815481529060010190602001808311610f4157829003601f168201915b5050505050848281518110610f7657610f75612695565b5b602002602001018190525060016000898381518110610f9857610f97612695565b5b6020026020010151815260200190815260200160002060030154838281518110610fc557610fc4612695565b5b60200260200101818152505060016000898381518110610fe857610fe7612695565b5b60200260200101518152602001908152602001600020600401805461100c906126f3565b80601f0160208091040260200160405190810160405280929190818152602001828054611038906126f3565b80156110855780601f1061105a57610100808354040283529160200191611085565b820191906000526020600020905b81548152906001019060200180831161106857829003601f168201915b505050505082828151811061109d5761109c612695565b5b602002602001018190525080806110b390612753565b915050610ea1565b508282829550955095505050509193909250565b60008082815260200190815260200160002060040154341015611127576040517f08c379a000000000000000000000000000000000000000000000000000000000815260040161111e906127e7565b60405180910390fd5b3373ffffffffffffffffffffffffffffffffffffffff166108fc60008084815260200190815260200160002060040154346111629190612807565b9081150290604051600060405180830381858888f1935050505015801561118d573d6000803e3d6000fd5b507fb0555ee686761aafa443e3163371ca03ee23d933eb31c75f7796052fd39f31933360008084815260200190815260200160002060040154346111d19190612807565b6040516111df929190612859565b60405180910390a160008082815260200190815260200160002060030160009054906101000a900473ffffffffffffffffffffffffffffffffffffffff1673ffffffffffffffffffffffffffffffffffffffff166108fc600080848152602001908152602001600020600401549081150290604051600060405180830381858888f19350505050158015611277573d6000803e3d6000fd5b50600080828152602001908152602001600020600601339080600181540180825580915050600190039060005260206000200160009091909190916101000a81548173ffffffffffffffffffffffffffffffffffffffff021916908373ffffffffffffffffffffffffffffffffffffffff16021790555050565b60606112fc33611c8e565b156113a6576000808381526020019081526020016000206000018054611321906126f3565b80601f016020809104026020016040519081016040528092919081815260200182805461134d906126f3565b801561139a5780601f1061136f5761010080835404028352916020019161139a565b820191906000526020600020905b81548152906001019060200180831161137d57829003601f168201915b505050505090506113df565b6040518060400160405280601a81526020017f596f7520646f6e2774206861766520746865206163636573732100000000000081525090505b919050565b606060005b60016000848152602001908152602001600020600501805490508110156115495760016000848152602001908152602001600020600501818154811061143257611431612695565b5b9060005260206000200160009054906101000a900473ffffffffffffffffffffffffffffffffffffffff1673ffffffffffffffffffffffffffffffffffffffff163373ffffffffffffffffffffffffffffffffffffffff1603611536576001600084815260200190815260200160002060000180546114b0906126f3565b80601f01602080910402602001604051908101604052809291908181526020018280546114dc906126f3565b80156115295780601f106114fe57610100808354040283529160200191611529565b820191906000526020600020905b81548152906001019060200180831161150c57829003601f168201915b5050505050915050611566565b808061154190612753565b9150506113e9565b50604051806060016040528060238152602001612bf46023913990505b919050565b6060806060806000855167ffffffffffffffff81111561158e5761158d611ebe565b5b6040519080825280602002602001820160405280156115c157816020015b60608152602001906001900390816115ac5790505b5090506000865167ffffffffffffffff8111156115e1576115e0611ebe565b5b60405190808252806020026020018201604052801561160f5781602001602082028036833780820191505090505b5090506000875167ffffffffffffffff81111561162f5761162e611ebe565b5b60405190808252806020026020018201604052801561166257816020015b606081526020019060019003908161164d5790505b5090506000885167ffffffffffffffff81111561168257611681611ebe565b5b6040519080825280602002602001820160405280156116b557816020015b60608152602001906001900390816116a05790505b50905060005b89518110156119a8576000808b83815181106116da576116d9612695565b5b6020026020010151815260200190815260200160002060010180546116fe906126f3565b80601f016020809104026020016040519081016040528092919081815260200182805461172a906126f3565b80156117775780601f1061174c57610100808354040283529160200191611777565b820191906000526020600020905b81548152906001019060200180831161175a57829003601f168201915b505050505085828151811061178f5761178e612695565b5b60200260200101819052506000808b83815181106117b0576117af612695565b5b60200260200101518152602001908152602001600020600401548482815181106117dd576117dc612695565b5b6020026020010181815250506000808b83815181106117ff576117fe612695565b5b602002602001015181526020019081526020016000206002018054611823906126f3565b80601f016020809104026020016040519081016040528092919081815260200182805461184f906126f3565b801561189c5780601f106118715761010080835404028352916020019161189c565b820191906000526020600020905b81548152906001019060200180831161187f57829003601f168201915b50505050508382815181106118b4576118b3612695565b5b60200260200101819052506000808b83815181106118d5576118d4612695565b5b6020026020010151815260200190815260200160002060050180546118f9906126f3565b80601f0160208091040260200160405190810160405280929190818152602001828054611925906126f3565b80156119725780601f1061194757610100808354040283529160200191611972565b820191906000526020600020905b81548152906001019060200180831161195557829003601f168201915b505050505082828151811061198a57611989612695565b5b602002602001018190525080806119a090612753565b9150506116bb565b50838383839750975097509750505050509193509193565b60006002826040516119d29190612ba8565b908152602001604051809103902060000160019054906101000a900473ffffffffffffffffffffffffffffffffffffffff1673ffffffffffffffffffffffffffffffffffffffff163373ffffffffffffffffffffffffffffffffffffffff1603611a6c57600282604051611a469190612ba8565b908152602001604051809103902060000160009054906101000a900460ff169050611a71565b600090505b919050565b6040518060c001604052808481526020018581526020018673ffffffffffffffffffffffffffffffffffffffff168152602001838152602001828152602001600067ffffffffffffffff811115611ad057611acf611ebe565b5b604051908082528060200260200182016040528015611afe5781602001602082028036833780820191505090505b508152506001600060055481526020019081526020016000206000820151816000019081611b2c9190612a2e565b506020820151816001019081611b429190612a2e565b5060408201518160020160006101000a81548173ffffffffffffffffffffffffffffffffffffffff021916908373ffffffffffffffffffffffffffffffffffffffff160217905550606082015181600301556080820151816004019081611ba99190612a2e565b5060a0820151816005019080519060200190611bc6929190611ce4565b5090505060066005549080600181540180825580915050600190039060005260206000200160009091909190915055600160056000828254611c089190612bbf565b925050819055505050505050565b60096020528060005260406000206000915054906101000a900460ff1681565b60606006805480602002602001604051908101604052809291908181526020018280548015611c8457602002820191906000526020600020905b815481526020019060010190808311611c70575b5050505050905090565b6000600960008373ffffffffffffffffffffffffffffffffffffffff1673ffffffffffffffffffffffffffffffffffffffff16815260200190815260200160002060009054906101000a900460ff169050919050565b828054828255906000526020600020908101928215611d5d579160200282015b82811115611d5c5782518260006101000a81548173ffffffffffffffffffffffffffffffffffffffff021916908373ffffffffffffffffffffffffffffffffffffffff16021790555091602001919060010190611d04565b5b509050611d6a9190611d6e565b5090565b5b80821115611d87576000816000905550600101611d6f565b5090565b6000604051905090565b600080fd5b600080fd5b6000819050919050565b611db281611d9f565b8114611dbd57600080fd5b50565b600081359050611dcf81611da9565b92915050565b600060208284031215611deb57611dea611d95565b5b6000611df984828501611dc0565b91505092915050565b600081519050919050565b600082825260208201905092915050565b60005b83811015611e3c578082015181840152602081019050611e21565b60008484015250505050565b6000601f19601f8301169050919050565b6000611e6482611e02565b611e6e8185611e0d565b9350611e7e818560208601611e1e565b611e8781611e48565b840191505092915050565b60006020820190508181036000830152611eac8184611e59565b905092915050565b600080fd5b600080fd5b7f4e487b7100000000000000000000000000000000000000000000000000000000600052604160045260246000fd5b611ef682611e48565b810181811067ffffffffffffffff82111715611f1557611f14611ebe565b5b80604052505050565b6000611f28611d8b565b9050611f348282611eed565b919050565b600067ffffffffffffffff821115611f5457611f53611ebe565b5b611f5d82611e48565b9050602081019050919050565b82818337600083830152505050565b6000611f8c611f8784611f39565b611f1e565b905082815260208101848484011115611fa857611fa7611eb9565b5b611fb3848285611f6a565b509392505050565b600082601f830112611fd057611fcf611eb4565b5b8135611fe0848260208601611f79565b91505092915050565b60008115159050919050565b611ffe81611fe9565b811461200957600080fd5b50565b60008135905061201b81611ff5565b92915050565b60008060008060008060c0878903121561203e5761203d611d95565b5b600087013567ffffffffffffffff81111561205c5761205b611d9a565b5b61206889828a01611fbb565b965050602087013567ffffffffffffffff81111561208957612088611d9a565b5b61209589828a01611fbb565b955050604087013567ffffffffffffffff8111156120b6576120b5611d9a565b5b6120c289828a01611fbb565b94505060606120d389828a01611dc0565b93505060806120e489828a0161200c565b92505060a087013567ffffffffffffffff81111561210557612104611d9a565b5b61211189828a01611fbb565b9150509295509295509295565b600081519050919050565b600082825260208201905092915050565b6000819050602082019050919050565b61215381611d9f565b82525050565b6000612165838361214a565b60208301905092915050565b6000602082019050919050565b60006121898261211e565b6121938185612129565b935061219e8361213a565b8060005b838110156121cf5781516121b68882612159565b97506121c183612171565b9250506001810190506121a2565b5085935050505092915050565b600060208201905081810360008301526121f6818461217e565b905092915050565b60006020828403121561221457612213611d95565b5b600082013567ffffffffffffffff81111561223257612231611d9a565b5b61223e84828501611fbb565b91505092915050565b600067ffffffffffffffff82111561226257612261611ebe565b5b602082029050602081019050919050565b600080fd5b600061228b61228684612247565b611f1e565b905080838252602082019050602084028301858111156122ae576122ad612273565b5b835b818110156122d757806122c38882611dc0565b8452602084019350506020810190506122b0565b5050509392505050565b600082601f8301126122f6576122f5611eb4565b5b8135612306848260208601612278565b91505092915050565b60006020828403121561232557612324611d95565b5b600082013567ffffffffffffffff81111561234357612342611d9a565b5b61234f848285016122e1565b91505092915050565b600081519050919050565b600082825260208201905092915050565b6000819050602082019050919050565b600082825260208201905092915050565b60006123a082611e02565b6123aa8185612384565b93506123ba818560208601611e1e565b6123c381611e48565b840191505092915050565b60006123da8383612395565b905092915050565b6000602082019050919050565b60006123fa82612358565b6124048185612363565b93508360208202850161241685612374565b8060005b85811015612452578484038952815161243385826123ce565b945061243e836123e2565b925060208a0199505060018101905061241a565b50829750879550505050505092915050565b6000606082019050818103600083015261247e81866123ef565b90508181036020830152612492818561217e565b905081810360408301526124a681846123ef565b9050949350505050565b600060808201905081810360008301526124ca81876123ef565b905081810360208301526124de818661217e565b905081810360408301526124f281856123ef565b9050818103606083015261250681846123ef565b905095945050505050565b61251a81611fe9565b82525050565b60006020820190506125356000830184612511565b92915050565b600073ffffffffffffffffffffffffffffffffffffffff82169050919050565b60006125668261253b565b9050919050565b6125768161255b565b811461258157600080fd5b50565b6000813590506125938161256d565b92915050565b600080600080600060a086880312156125b5576125b4611d95565b5b60006125c388828901612584565b955050602086013567ffffffffffffffff8111156125e4576125e3611d9a565b5b6125f088828901611fbb565b945050604086013567ffffffffffffffff81111561261157612610611d9a565b5b61261d88828901611fbb565b935050606061262e88828901611dc0565b925050608086013567ffffffffffffffff81111561264f5761264e611d9a565b5b61265b88828901611fbb565b9150509295509295909350565b60006020828403121561267e5761267d611d95565b5b600061268c84828501612584565b91505092915050565b7f4e487b7100000000000000000000000000000000000000000000000000000000600052603260045260246000fd5b7f4e487b7100000000000000000000000000000000000000000000000000000000600052602260045260246000fd5b6000600282049050600182168061270b57607f821691505b60208210810361271e5761271d6126c4565b5b50919050565b7f4e487b7100000000000000000000000000000000000000000000000000000000600052601160045260246000fd5b600061275e82611d9f565b91507fffffffffffffffffffffffffffffffffffffffffffffffffffffffffffffffff82036127905761278f612724565b5b600182019050919050565b7f496e64617175617465204554482073656e740000000000000000000000000000600082015250565b60006127d1601283611e0d565b91506127dc8261279b565b602082019050919050565b60006020820190508181036000830152612800816127c4565b9050919050565b600061281282611d9f565b915061281d83611d9f565b925082820390508181111561283557612834612724565b5b92915050565b6128448161255b565b82525050565b61285381611d9f565b82525050565b600060408201905061286e600083018561283b565b61287b602083018461284a565b9392505050565b60008190508160005260206000209050919050565b60006020601f8301049050919050565b600082821b905092915050565b6000600883026128e47fffffffffffffffffffffffffffffffffffffffffffffffffffffffffffffffff826128a7565b6128ee86836128a7565b95508019841693508086168417925050509392505050565b6000819050919050565b600061292b61292661292184611d9f565b612906565b611d9f565b9050919050565b6000819050919050565b61294583612910565b61295961295182612932565b8484546128b4565b825550505050565b600090565b61296e612961565b61297981848461293c565b505050565b5b8181101561299d57612992600082612966565b60018101905061297f565b5050565b601f8211156129e2576129b381612882565b6129bc84612897565b810160208510156129cb578190505b6129df6129d785612897565b83018261297e565b50505b505050565b600082821c905092915050565b6000612a05600019846008026129e7565b1980831691505092915050565b6000612a1e83836129f4565b9150826002028217905092915050565b612a3782611e02565b67ffffffffffffffff811115612a5057612a4f611ebe565b5b612a5a82546126f3565b612a658282856129a1565b600060209050601f831160018114612a985760008415612a86578287015190505b612a908582612a12565b865550612af8565b601f198416612aa686612882565b60005b82811015612ace57848901518255600182019150602085019450602081019050612aa9565b86831015612aeb5784890151612ae7601f8916826129f4565b8355505b6001600288020188555050505b505050505050565b7f496e6164657175617465204554482073656e7400000000000000000000000000600082015250565b6000612b36601383611e0d565b9150612b4182612b00565b602082019050919050565b60006020820190508181036000830152612b6581612b29565b9050919050565b600081905092915050565b6000612b8282611e02565b612b8c8185612b6c565b9350612b9c818560208601611e1e565b80840191505092915050565b6000612bb48284612b77565b915081905092915050565b6000612bca82611d9f565b9150612bd583611d9f565b9250828201905080821115612bed57612bec612724565b5b9291505056fe596f7520686176656e277420707572636861736564207468697320617069206b657921596f7520686176656e2774207075726368617365642074686973206461746173657421a26469706673582212200e07a13adc0af3b100ae9b2c971cb75a045571d888e4a4ae7f443f5563c7da5d64736f6c63430008110033",
  "linkReferences": {},
  "deployedLinkReferences": {}
}